:100F1B0044697374616E63653A00636D002D2D2D0A
:010F2B0000C5
:040F2C00020D0000B2
:100EB5007F02120ED37F28120ED37F06120ED37F28
:0E0EC5000C120ED37F01120ED37F80020ED3CB
:100ED3008F09E50954F0F5A0C280C281D282120EB7
:0E0EE300F8C282120EF8E509120EF1C2822248
:0B0E67007D0A7C00120BCBED2430FF55
:100E72008F0CE50C54F0F5A0D280C281D282120E02
:0E0E8200F8C282120EF8E50C120EF1C28222A6
:100E90008B098A0A890BAB09AA0AA90B120B5D60A0
:100EA00013050BE50B7002050A14F9120B5DFF1216
:050EB0000E7280E22239
:070EF100C454F0F5A0D28209
:0E0EF800E4FFFE0FBF00010EBE03F8BFE9F5D8
:010F060022C8
:100F0700E4F58AF58CD2B50000000000000000006F
:040F170000C2B5223D
:100E2400120F0730B2FD20B2FD858C83858A82754E
:100E34008AFF758CFFAF82AE83E4FCFD7B707A94ED
:100E4400F9F8D3120C0F4011AF82AE837C007D3BC6
:100E5400120B768E838F828005E4F583F582AF8250
:020E6400AE835B
:010E66002269
:100C2500758909E4F58AF58CD28C120EB57F81128F
:100C35000ED37BFF7A0F791B120E907F8D120ED388
:100C45007BFF7A0F7925120E9043B004120E248E85
:100C55000D8F0ED3E50E9490E50D64809481400DC3
:100C6500C2917BFF7A0F7928120E9080DFD2917F97
:100C75008A120ED3AE0DAF0E7C007D64120BCB7DB8
:100C850064120E69AE0DAF0E7C007D0A120BCB12FD
:100C95000E67AE0DAF0E120E67AC0DAD0EEC120960
:100CA5000BE4FBFA79C8783F120800120CF212091E
:100CB500448E0D8F0E7FC0120ED3750801D3E50843
:100CC500648094905086AF08EF3395E0FED3EF959E
:100CD5000EE50D6480F8EE64809850047FFF800275
:090CE5007F20120E72050880D474
:10080000EC4D6011E8497017ED33EC3304600DE4F2
:10081000FCFFFEFD22E933E8330470F80209B01250
:10082000097B58046009E4CC248150062850090251
:1008300009BA2840030209B7C0E0EB4A7044B98006
:1008400006D0E0FB0209A6EF4E701CBD8008EBFF4E
:10085000EAFEE9FD80EBE98DF0A4FEE5F00208E98F
:10086000E9CDF9EAFEEBFFEF89F0A4FCE5F0CE89D3
:10087000F0A42EFFE435F0CD89F0A42DFEE435F090
:100880008067EF4E7005BD80D780C3EF8BF0A4ACBE
:10089000F0EE8BF0A42CFCE435F0F8EF8AF0A42CF9
:1008A000E5F038FCE433CB8DF0A42CFCE5F03BF80C
:1008B000EE8AF0A42CFCE5F038F8E433CF89F0A4FC
:1008C0002CFCE5F038CF3400CE89F0A42FFFE5F002
:1008D0003EFEE433C98DF0A42EFEE5F039CD8AF05A
:1008E000A42FFFE5F03EFEE43DFD33D0E0FB5007D2
:1008F0000BBB000F0209BAEC2CFCEF33FFEE33FE0A
:06090000ED33FD02099237
:1009060075F020800E75F010800575F0087D007E6C
:10091600007F003392D530D503120C01EC33401022
:10092600EF33FFEE33FEED33FDEC33FCD5F0ED2275
:0E093600E5F0247EA2D513CC92E7CDCEFF22B1
:10094400EDD2E7CD33EC3392D524814006E4FFFEAB
:10095400FDFC22FCE4CFCECDCC24E0501174FF800A
:10096400EDC3CC13CCCD13CDCE13CECF13CF0470A7
:07097400F030D5DE020C019A
:100CEE000209B022EDA2E7D2E7F9EC3340F260F34D
:100CFE00B4FF08ED547F70E80209BAF82481C2E00F
:100D0E00C0E0F40428FAC313FCED92E7FD8C098DC4
:100D1E000A8E0B8F0CEEA2E7E9BA7F02C3133400E2
:100D2E009400FA75F091A4E5F013F494FE8AF0A401
:100D3E0033E5F033248CD313FDE492E7FE7F007C81
:100D4E003F758302ECC0E0F8EDC0E0F9EEC0E0FACA
:100D5E00EFC0E0FBAC09AD0AAE0BAF0C120AC0D06F
:100D6E00E0FBD0E0FAD0E0F9D0E0F81209CCED6467
:100D7E0080FD30E7011CD583CBED33CC33F8D0E0CA
:0A0D8E00A2E71328C313CC13FD22C3
:10097B00E9D2E7C933E833F892D5EDD2E7CD33ECC2
:07098B0033FC5002B2D5223B
:10099200EC30E7100FBF000C0EBE00080DBD0004C6
:1009A2000BEB6014A2D5EB13FCED92E7FD2274FF72
:1009B200FCFDFEFF22E480F8A2D574FF13FC7D80CB
:0309C200E480EFDF
:1009C5000209B0E86480F8E933E83360110460F0A7
:1009D500ED33EC337009E8FCE9FDEAFEEBFF220498
:1009E50060DED3EB9FEA9EE99DE8C2E78CF0C2F793
:1009F50095F0400CE8CCF8E9CDF9EACEFAEBCFFB5F
:100A050012097B85D0F05804700320D5B3E8047033
:100A1500075002B2D50209BA92D5EC0460F7E4CCCE
:100A2500C0E0C398F8603B94186008400DD0E0FB27
:100A3500020992E4FBFAC9FC8028E830E406E4C91F
:100A4500FBE4CAFCE830E305E4C9CACBFCE854077B
:100A55006010F8C3E913F9EA13FAEB13FBEC13FC86
:100A6500D8F130F52FC3E49CFCEF9BFFEE9AFEED29
:100A750099FDD0E0FBEF4E4D4C701222DB030209CD
:100A8500B7EC2CFCEF33FFEE33FEED33FDED30E735
:100A9500EB020992EF2BFFEE3AFEED39FDD0E0FBBC
:100AA50050130BBB00030209BAED13FDEE13FEEF65
:080AB50013FFEC13FC0209928F
:100ABD000209BAEC5D046005E8590470030209B03F
:100ACD0012097B580460F6EC4860F2EC7004FDFEF0
:100ADD00FF22C860DB2481C85009C398600250060C
:100AED000209B79850CAF582E9294B4A7005AB82C5
:100AFD000209A675F0007C1A7880C3EF9BEE9AED83
:100B0D0099400DC3EF9BFFEE9AFEED99FDE842F083
:100B1D00DC23ACF0D0E0FFD0E0FED0E0FDAB8220D6
:100B2D00E7101BEB60BAEC2CFCEF33FFEE33FEED60
:100B3D0033FD020992E803F830E705C0F075F000C7
:100B4D00EF2FFFEE33FEED33FD40B830E7C280AA44
:03000000020D9856
:0C0D9800787FE4F6D8FD75810E020DDFB7
:100B5D00BB010689828A83E0225002E722BBFE0296
:090B6D00E32289828A83E49322C9
:100B7600BC000BBE0029EF8DF084FFADF022E4CC63
:100B8600F875F008EF2FFFEE33FEEC33FCEE9DEC2C
:100B9600984005FCEE9DFE0FD5F0E9E4CEFD22ED72
:100BA600F8F5F0EE8420D21CFEADF075F008EF2FBC
:100BB600FFED33FD4007985006D5F0F222C398FDAD
:050BC6000FD5F0EA224A
:100BCB00C2D5EC30E709B2D5E4C39DFDE49CFCEE45
:100BDB0030E715B2D5E4C39FFFE49EFE120B76C33C
:100BEB00E49DFDE49CFC8003120B7630D507C3E437
:060BFB009FFFE49EFE22B4
:0E0C0100C3E49FFFE49EFEE49DFDE49CFC2204
:100C0F00EB9FF5F0EA9E42F0E99D42F0EC6480C85C
:060C1F0064809845F022FC
:100DA400020C25E493A3F8E493A34003F68001F234
:100DB40008DFF48029E493A3F85407240CC8C33350
:100DC400C4540F4420C8834004F456800146F6DF1F
:100DD400E4800B0102040810204080900F2CE47E74
:100DE400019360BCA3FF543F30E509541FFEE49314
:100DF400A360010ECF54C025E060A840B8E493A3DB
:100E0400FAE493A3F8E493A3C8C582C8CAC583CA05
:100E1400F0A3C8C582C8CAC583CADFE9DEE780BEBD
:010F300000C0
:00000001FF
