:0C09EC0044697374616E636500636D0004
:100994007F381209D07F0E1209D07F061209D07F4A
:0909A4000C1209D07F800209D079
:0E09D0008FA0C280C281D2821209C1C28222CF
:0E09DE008FA0D280C281D2821209C1C28222B1
:10096F008B0B8A0C890DAB0BAA0CA90D120800601A
:10097F0013050DE50D7002050C14F9120800FF1296
:05098F0009DE80E222F8
:0E09C100E4FFFE0FBF00010EBE03F8BFE9F514
:0109CF002205
:1009AD00E4F58AF58CD2B5000000000000000000CF
:0409BD0000C2B5229D
:100932001209AD30B2FD20B2FD858C83858A8275A5
:100942008AFF758CFFAF82AE83E4FCFD7B707A94E4
:10095200F9F8D31208A4400FAF82AE837C007D3B2E
:0C0962001208198F0B8003E4F50BAF0B9B
:01096E002266
:1008BA00758909E4F58AF58CD28C1209947F841221
:1008CA0009D07BFF7A0979EC12096F7FC91209D026
:0C08DA007BFF7A0979F512096F43B00426
:1008E6001209327508008F09C3E5099409E5086401
:1008F6008094805004D2B18002C2B17FC51209D063
:10090600750A04E50A60D9AE08AF097C007D0A12B3
:10091600086EED2430FF1209DEAE08AF097C007DBB
:0C0926000A12086E8E088F09150A80D78F
:030000000209F8FA
:0C09F800787FE4F6D8FD75810D0208BA86
:10080000BB010689828A83E0225002E722BBFE02F6
:09081000E32289828A83E4932229
:10081900BC000BBE0029EF8DF084FFADF022E4CCC3
:10082900F875F008EF2FFFEE33FEEC33FCEE9DEC8C
:10083900984005FCEE9DFE0FD5F0E9E4CEFD22EDD2
:10084900F8F5F0EE8420D21CFEADF075F008EF2F1C
:10085900FFED33FD4007985006D5F0F222C398FD0D
:050869000FD5F0EA22AA
:10086E00C2D5EC30E709B2D5E4C39DFDE49CFCEEA5
:10087E0030E715B2D5E4C39FFFE49EFE120819C3FC
:10088E00E49DFDE49CFC800312081930D507C3E4F7
:06089E009FFFE49EFE2214
:1008A400EB9FF5F0EA9E42F0E99D42F0EC6480C8CB
:0608B40064809845F0226B
:00000001FF
